{"contracts/Wallet.sol":{"Wallet":{"abi":[{"anonymous":false,"inputs":[],"name":"HandleLayerStarted","type":"event"},{"inputs":[],"name":"handleLayerFailure","outputs":[],"stateMutability":"nonpayable","type":"function"},{"inputs":[],"name":"handleLayerStarted","outputs":[],"stateMutability":"nonpayable","type":"function"},{"inputs":[],"name":"handleLayerSuccess","outputs":[],"stateMutability":"nonpayable","type":"function"},{"inputs":[],"name":"test","outputs":[],"stateMutability":"nonpayable","type":"function"}],"evm":{"bytecode":{"linkReferences":{},"object":"608060405234801561001057600080fd5b50610327806100206000396000f3fe608060405234801561001057600080fd5b506004361061004c5760003560e01c80632902e27614610051578063a21f30cc1461005b578063f14b60f214610065578063f8a8fd6d1461006f575b600080fd5b610059610079565b005b61006361007b565b005b61006d61007d565b005b6100776100ab565b005b565b565b7f27bd418766e4de648cce10a00043c9d555f9f83b624d6702f41f69fd04edd0bf60405160405180910390a1565b60006100ce3063f14b60f260e01b63a21f30cc60e01b632902e27660e01b6100d3565b905050565b6100db610231565b6100e3610231565b6100fc868686868561010790949392919063ffffffff16565b915050949350505050565b61010f610231565b84866020019073ffffffffffffffffffffffffffffffffffffffff16908173ffffffffffffffffffffffffffffffffffffffff16815250508386606001907bffffffffffffffffffffffffffffffffffffffffffffffffffffffff191690817bffffffffffffffffffffffffffffffffffffffffffffffffffffffff191681525050828660a001907bffffffffffffffffffffffffffffffffffffffffffffffffffffffff191690817bffffffffffffffffffffffffffffffffffffffffffffffffffffffff191681525050818660e001907bffffffffffffffffffffffffffffffffffffffffffffffffffffffff191690817bffffffffffffffffffffffffffffffffffffffffffffffffffffffff19168152505085905095945050505050565b604051806101000160405280600015158152602001600073ffffffffffffffffffffffffffffffffffffffff16815260200160001515815260200160007bffffffffffffffffffffffffffffffffffffffffffffffffffffffff1916815260200160001515815260200160007bffffffffffffffffffffffffffffffffffffffffffffffffffffffff1916815260200160001515815260200160007bffffffffffffffffffffffffffffffffffffffffffffffffffffffff19168152509056fea26469706673582212201b82220fba16a4e2f581fd9afa79215202b7517483519de57d0d56fdc07f729864736f6c63430008110033","opcodes":"PUSH1 0x80 PUSH1 0x40 MSTORE CALLVALUE DUP1 ISZERO PUSH2 0x10 JUMPI PUSH1 0x0 DUP1 REVERT JUMPDEST POP PUSH2 0x327 DUP1 PUSH2 0x20 PUSH1 0x0 CODECOPY PUSH1 0x0 RETURN INVALID PUSH1 0x80 PUSH1 0x40 MSTORE CALLVALUE DUP1 ISZERO PUSH2 0x10 JUMPI PUSH1 0x0 DUP1 REVERT JUMPDEST POP PUSH1 0x4 CALLDATASIZE LT PUSH2 0x4C JUMPI PUSH1 0x0 CALLDATALOAD PUSH1 0xE0 SHR DUP1 PUSH4 0x2902E276 EQ PUSH2 0x51 JUMPI DUP1 PUSH4 0xA21F30CC EQ PUSH2 0x5B JUMPI DUP1 PUSH4 0xF14B60F2 EQ PUSH2 0x65 JUMPI DUP1 PUSH4 0xF8A8FD6D EQ PUSH2 0x6F JUMPI JUMPDEST PUSH1 0x0 DUP1 REVERT JUMPDEST PUSH2 0x59 PUSH2 0x79 JUMP JUMPDEST STOP JUMPDEST PUSH2 0x63 PUSH2 0x7B JUMP JUMPDEST STOP JUMPDEST PUSH2 0x6D PUSH2 0x7D JUMP JUMPDEST STOP JUMPDEST PUSH2 0x77 PUSH2 0xAB JUMP JUMPDEST STOP JUMPDEST JUMP JUMPDEST JUMP JUMPDEST PUSH32 0x27BD418766E4DE648CCE10A00043C9D555F9F83B624D6702F41F69FD04EDD0BF PUSH1 0x40 MLOAD PUSH1 0x40 MLOAD DUP1 SWAP2 SUB SWAP1 LOG1 JUMP JUMPDEST PUSH1 0x0 PUSH2 0xCE ADDRESS PUSH4 0xF14B60F2 PUSH1 0xE0 SHL PUSH4 0xA21F30CC PUSH1 0xE0 SHL PUSH4 0x2902E276 PUSH1 0xE0 SHL PUSH2 0xD3 JUMP JUMPDEST SWAP1 POP POP JUMP JUMPDEST PUSH2 0xDB PUSH2 0x231 JUMP JUMPDEST PUSH2 0xE3 PUSH2 0x231 JUMP JUMPDEST PUSH2 0xFC DUP7 DUP7 DUP7 DUP7 DUP6 PUSH2 0x107 SWAP1 SWAP5 SWAP4 SWAP3 SWAP2 SWAP1 PUSH4 0xFFFFFFFF AND JUMP JUMPDEST SWAP2 POP POP SWAP5 SWAP4 POP POP POP POP JUMP JUMPDEST PUSH2 0x10F PUSH2 0x231 JUMP JUMPDEST DUP5 DUP7 PUSH1 0x20 ADD SWAP1 PUSH20 0xFFFFFFFFFFFFFFFFFFFFFFFFFFFFFFFFFFFFFFFF AND SWAP1 DUP2 PUSH20 0xFFFFFFFFFFFFFFFFFFFFFFFFFFFFFFFFFFFFFFFF AND DUP2 MSTORE POP POP DUP4 DUP7 PUSH1 0x60 ADD SWAP1 PUSH28 0xFFFFFFFFFFFFFFFFFFFFFFFFFFFFFFFFFFFFFFFFFFFFFFFFFFFFFFFF NOT AND SWAP1 DUP2 PUSH28 0xFFFFFFFFFFFFFFFFFFFFFFFFFFFFFFFFFFFFFFFFFFFFFFFFFFFFFFFF NOT AND DUP2 MSTORE POP POP DUP3 DUP7 PUSH1 0xA0 ADD SWAP1 PUSH28 0xFFFFFFFFFFFFFFFFFFFFFFFFFFFFFFFFFFFFFFFFFFFFFFFFFFFFFFFF NOT AND SWAP1 DUP2 PUSH28 0xFFFFFFFFFFFFFFFFFFFFFFFFFFFFFFFFFFFFFFFFFFFFFFFFFFFFFFFF NOT AND DUP2 MSTORE POP POP DUP2 DUP7 PUSH1 0xE0 ADD SWAP1 PUSH28 0xFFFFFFFFFFFFFFFFFFFFFFFFFFFFFFFFFFFFFFFFFFFFFFFFFFFFFFFF NOT AND SWAP1 DUP2 PUSH28 0xFFFFFFFFFFFFFFFFFFFFFFFFFFFFFFFFFFFFFFFFFFFFFFFFFFFFFFFF NOT AND DUP2 MSTORE POP POP DUP6 SWAP1 POP SWAP6 SWAP5 POP POP POP POP POP JUMP JUMPDEST PUSH1 0x40 MLOAD DUP1 PUSH2 0x100 ADD PUSH1 0x40 MSTORE DUP1 PUSH1 0x0 ISZERO ISZERO DUP2 MSTORE PUSH1 0x20 ADD PUSH1 0x0 PUSH20 0xFFFFFFFFFFFFFFFFFFFFFFFFFFFFFFFFFFFFFFFF AND DUP2 MSTORE PUSH1 0x20 ADD PUSH1 0x0 ISZERO ISZERO DUP2 MSTORE PUSH1 0x20 ADD PUSH1 0x0 PUSH28 0xFFFFFFFFFFFFFFFFFFFFFFFFFFFFFFFFFFFFFFFFFFFFFFFFFFFFFFFF NOT AND DUP2 MSTORE PUSH1 0x20 ADD PUSH1 0x0 ISZERO ISZERO DUP2 MSTORE PUSH1 0x20 ADD PUSH1 0x0 PUSH28 0xFFFFFFFFFFFFFFFFFFFFFFFFFFFFFFFFFFFFFFFFFFFFFFFFFFFFFFFF NOT AND DUP2 MSTORE PUSH1 0x20 ADD PUSH1 0x0 ISZERO ISZERO DUP2 MSTORE PUSH1 0x20 ADD PUSH1 0x0 PUSH28 0xFFFFFFFFFFFFFFFFFFFFFFFFFFFFFFFFFFFFFFFFFFFFFFFFFFFFFFFF NOT AND DUP2 MSTORE POP SWAP1 JUMP INVALID LOG2 PUSH5 0x6970667358 0x22 SLT KECCAK256 SHL DUP3 0x22 0xF 0xBA AND LOG4 0xE2 CREATE2 DUP2 REVERT SWAP11 STATICCALL PUSH26 0x215202B7517483519DE57D0D56FDC07F729864736F6C63430008 GT STOP CALLER "},"methodIdentifiers":{"handleLayerFailure()":"2902e276","handleLayerStarted()":"f14b60f2","handleLayerSuccess()":"a21f30cc","test()":"f8a8fd6d"}}}}}