{
  "_format": "hh-sol-artifact-1",
  "contractName": "Wallet",
  "sourceName": "contracts/Wallet.sol",
  "abi": [
    {
      "anonymous": false,
      "inputs": [],
      "name": "HandleLayerStarted",
      "type": "event"
    },
    {
      "inputs": [],
      "name": "handleLayerFailure",
      "outputs": [],
      "stateMutability": "nonpayable",
      "type": "function"
    },
    {
      "inputs": [],
      "name": "handleLayerStarted",
      "outputs": [],
      "stateMutability": "nonpayable",
      "type": "function"
    },
    {
      "inputs": [],
      "name": "handleLayerSuccess",
      "outputs": [],
      "stateMutability": "nonpayable",
      "type": "function"
    },
    {
      "inputs": [],
      "name": "test",
      "outputs": [],
      "stateMutability": "nonpayable",
      "type": "function"
    }
  ],
  "bytecode": "0x608060405234801561001057600080fd5b506104ac806100206000396000f3fe608060405234801561001057600080fd5b506004361061004c5760003560e01c80632902e27614610051578063a21f30cc1461005b578063f14b60f214610065578063f8a8fd6d1461006f575b600080fd5b610059610079565b005b61006361007b565b005b61006d61007d565b005b6100776100ab565b005b565b565b7f27bd418766e4de648cce10a00043c9d555f9f83b624d6702f41f69fd04edd0bf60405160405180910390a1565b60006100ce3063f14b60f260e01b63a21f30cc60e01b632902e27660e01b6100dc565b90506100d981610110565b50565b6100e46102d8565b6100ec6102d8565b610105868686868561011c90949392919063ffffffff16565b915050949350505050565b61011981610246565b50565b6101246102d8565b84866020019073ffffffffffffffffffffffffffffffffffffffff16908173ffffffffffffffffffffffffffffffffffffffff16815250508386606001907bffffffffffffffffffffffffffffffffffffffffffffffffffffffff191690817bffffffffffffffffffffffffffffffffffffffffffffffffffffffff191681525050828660a001907bffffffffffffffffffffffffffffffffffffffffffffffffffffffff191690817bffffffffffffffffffffffffffffffffffffffffffffffffffffffff191681525050818660e001907bffffffffffffffffffffffffffffffffffffffffffffffffffffffff191690817bffffffffffffffffffffffffffffffffffffffffffffffffffffffff19168152505085905095945050505050565b806020015173ffffffffffffffffffffffffffffffffffffffff16816060015160405160200161027691906103d3565b604051602081830303815290604052604051610292919061045f565b600060405180830381855af49150503d80600081146102cd576040519150601f19603f3d011682016040523d82523d6000602084013e6102d2565b606091505b50505050565b604051806101000160405280600015158152602001600073ffffffffffffffffffffffffffffffffffffffff16815260200160001515815260200160007bffffffffffffffffffffffffffffffffffffffffffffffffffffffff1916815260200160001515815260200160007bffffffffffffffffffffffffffffffffffffffffffffffffffffffff1916815260200160001515815260200160007bffffffffffffffffffffffffffffffffffffffffffffffffffffffff191681525090565b60007fffffffff0000000000000000000000000000000000000000000000000000000082169050919050565b6103cd81610398565b82525050565b60006020820190506103e860008301846103c4565b92915050565b600081519050919050565b600081905092915050565b60005b83811015610422578082015181840152602081019050610407565b60008484015250505050565b6000610439826103ee565b61044381856103f9565b9350610453818560208601610404565b80840191505092915050565b600061046b828461042e565b91508190509291505056fea2646970667358221220eec6d5eb1c7cb18366b1d1b7e30bca312c7047ee37aef564e94e6c94bec8800064736f6c63430008110033",
  "linkReferences": {},
  "deployedLinkReferences": {}
}